:100000000C9462000C948A000C948A000C948A0070
:100010000C948A000C948A000C948A000C948A0038
:100020000C948A000C948A000C948A000C948A0028
:100030000C948A000C948A000C948A000C948A0018
:100040000C9405040C948A000C9475040C944F04D1
:100050000C948A000C948A000C948A000C948A00F8
:100060000C948A000C948A000000000024002700F1
:100070002A0000000000250028002B0000000008D6
:10008000000201000003040700000000000000005F
:1000900000000000230026002900040404040404D6
:1000A0000404020202020202030303030303010227
:1000B00004081020408001020408102001020408F6
:1000C0001020A70411241FBECFEFD8E0DEBFCDBFA4
:1000D00011E0A0E0B1E0EAE7F1E102C005900D9285
:1000E000AA32B107D9F721E0AAE2B1E001C01D921E
:1000F000A33EB207E1F710E0C2E6D0E004C02197CA
:10010000FE010E94B508C136D107C9F70E94F40468
:100110000C94BB080C940000CF92DF92EF92FF92F8
:10012000CF93DF93B091D701A0E08111AB2F8091E5
:10013000D80190E0880F991FAC0140575F4FC090E5
:10014000DD01D090DE01E090DF01F090E00130E0D1
:1001500020E0FA01C591D491E881B90190E080E0F6
:10016000EB23EA130AC02F5F3F4F6C157D058E0508
:100170009F0578F36FEF7FEFCB01DF91CF91FF9079
:10018000EF90DF90CF90089590E0FC01E458FF4F8E
:100190002491FC01E255FF4F3491FC01E656FF4FDC
:1001A000E491EE23C9F0222339F0233001F1A8F4C1
:1001B000213019F1223029F1F0E0EE0FFF1FEE5847
:1001C000FF4FA591B4918FB7F894EC91611126C0BF
:1001D00030953E233C938FBF08952730A9F02830F7
:1001E000C9F0243049F7809180008F7D03C0809151
:1001F00080008F7780938000DFCF84B58F7784BDB8
:10020000DBCF84B58F7DFBCF8091B0008F7780935B
:10021000B000D2CF8091B0008F7DF9CF3E2BDACFE6
:10022000CF93DF9390E0FC01E255FF4F2491865677
:100230009F4FFC0184918823D1F090E0880F991F93
:10024000FC01E859FF4FA591B491FC01EE58FF4F16
:10025000C591D491623071F49FB7F8943C91822F8C
:10026000809583238C93E8812E2B28839FBFDF9179
:10027000CF9108958FB7F894EC912E2B2C938FBFCC
:10028000F6CF3FB7F89480912B0190912C01A0916B
:100290002D01B0912E0126B5A89B05C02F3F19F066
:1002A0000196A11DB11D3FBFBA2FA92F982F8827F6
:1002B000BC01CD01620F711D811D911D42E0660FD1
:1002C000771F881F991F4A95D1F708958F929F92A3
:1002D000AF92BF92CF92DF92EF92FF924B015C01FF
:1002E0000E9441016B017C010E9441016C197D0952
:1002F0008E099F09683E734081059105A8F321E0AE
:10030000821A9108A108B10888EEC80E83E0D81EB1
:10031000E11CF11C81149104A104B10429F7FF90A0
:10032000EF90DF90CF90BF90AF909F908F90089507
:10033000CF92DF92EF92FF920F931F93CF93DF93B1
:10034000CDB7DEB7C054D1400FB6F894DEBF0FBEB4
:10035000CDBF2FB7F89480912F0190913001A091DB
:100360003101B09132012FBF4091D9015091DA0192
:100370006091DB017091DC018C019D01041B150B68
:10038000260B370BB901A801403D574061057105A7
:1003900090F48091E101C05CDE4F0FB6F894DEBFAF
:1003A0000FBECDBFDF91CF911F910F91FF90EF90C6
:1003B000DF90CF9008958093D9019093DA01A093B4
:1003C000DB01B093DC011092D4011092D3011092A2
:1003D000D2011092D1011092D00162E08091D5013A
:1003E0000E94100161E070E080E090E00E946601F0
:1003F00061E08091D5010E94100160E08091D501FB
:100400000E94C4008091D6018551823020F58BE294
:1004100091E10197F1F762E08091D5010E9410010E
:100420008091E20190E08230910538F0880F991FA9
:10043000880F991F05970197F1F7F89480E00E94C3
:100440008C006F3F7F4F8F4F9F4F61F41092E101FF
:10045000789480E0A0CF64E170E080E090E00E94BA
:100460006601D9CF81E00E948C006F3F7F4F8F4F94
:100470009F4F61F38E010F5F1F4F6E018FEBC81A04
:100480008EEFD80A780180E00E948C00F70160832B
:1004900071838283938381E00E948C00F7016483DF
:1004A000758386839783F8E0EF0EF11CEC14FD044E
:1004B00051F7789430E020E0F801C080D180E280EC
:1004C000F3804481558166817781FFEFCF16DF0687
:1004D000EF06FF0631F04F3F8FEF580768077807A8
:1004E00019F41092E101B5CFF90183E0F595E79594
:1004F0008A95E1F7E053FE4F8081880FC416D50638
:10050000E606F70610F180832F5F3F4F085F1F4F0D
:100510002832310589F64091D4012091D001809193
:10052000D101280F3327331F8091D201280F311DAD
:100530008091D301820F932F911D99274817190697
:1005400081F681E08093E10126CF8160DCCFAF921C
:10055000BF92CF92DF92EF92FF920F931F93CF93B0
:10056000DF936C017B018B01040F151FEB015E0112
:10057000AE18BF08C017D10759F06991D601ED91A7
:10058000FC910190F081E02DC6010995892B79F746
:10059000C501DF91CF911F910F91FF90EF90DF90F8
:1005A000CF90BF90AF900895FC01538D448D252FBF
:1005B00030E0842F90E0821B930B541710F0CF96FD
:1005C000089501970895FC01918D828D981761F02F
:1005D000A28DAE0FBF2FB11D5D968C91928D9F5F46
:1005E0009F73928F90E008958FEF9FEF0895FC0125
:1005F000918D828D981731F0828DE80FF11D858DD8
:1006000090E008958FEF9FEF0895FC01918D228D6A
:10061000892F90E0805C9F4F821B91098F739927EF
:10062000089583E391E00E94050321E0892B09F4FA
:1006300020E0822F089580E090E0892B29F00E942D
:10064000110381110C9400000895FC01A48DA80FE2
:10065000B92FB11DA35ABF4F2C91848D90E0019604
:100660008F739927848FA689B7892C93A089B18924
:100670008C91837080648C93938D848D981306C0C5
:100680000288F389E02D80818F7D80830895EF9229
:10069000FF920F931F93CF93DF93EC0181E0888F3C
:1006A0009B8D8C8D98131AC0E889F989808185FF0C
:1006B00015C09FB7F894EE89FF896083E889F989AE
:1006C00080818370806480839FBF81E090E0DF91B0
:1006D000CF911F910F91FF90EF900895F62E0B8D03
:1006E00010E00F5F1F4F0F731127E02E8C8D8E11BE
:1006F0000CC00FB607FCFACFE889F989808185FF25
:10070000F5CFCE010E942503F1CFEB8DEC0FFD2F2D
:10071000F11DE35AFF4FF0829FB7F8940B8FEA89DF
:10072000FB8980818062CFCFCF93DF93EC01888DEE
:100730008823B9F0AA89BB89E889F9898C9185FD5C
:1007400003C0808186FD0DC00FB607FCF7CF8C91EA
:1007500085FFF2CF808185FFEDCFCE010E9425037A
:10076000E9CFDF91CF910895FC0101900020E9F7D6
:100770003197AF01481B590BBC0183E391E00C9406
:10078000A7028F929F92AF92BF920F931F93CF9326
:10079000DF93CDB7DEB7A1970FB6F894DEBF0FBEDB
:1007A000CDBF19A2423008F44AE08E010F5D1F4F01
:1007B000842E912CB12CA12CA50194010E949308A8
:1007C000E62FB901CA01EA30F4F4E05DD801EE93F6
:1007D0008D01232B242B252B79F790E080E01097B7
:1007E00019F0CD010E94B403A1960FB6F894DEBFB4
:1007F0000FBECDBFDF91CF911F910F91BF90AF90F2
:100800009F908F900895E95CE1CF1F920F920FB6F1
:100810000F9211242F933F938F939F93AF93BF9386
:1008200080912F0190913001A0913101B09132015E
:1008300030912A0123E0230F2D3758F50196A11D91
:10084000B11D20932A0180932F0190933001A09332
:100850003101B093320180912B0190912C01A09134
:100860002D01B0912E010196A11DB11D80932B0188
:1008700090932C01A0932D01B0932E01BF91AF91C5
:100880009F918F913F912F910F900FBE0F901F90CE
:10089000189526E8230F0296A11DB11DD2CF1F92F5
:1008A0000F920FB60F9211242F933F934F935F93A4
:1008B0006F937F938F939F93AF93BF93EF93FF9328
:1008C00083E391E00E942503FF91EF91BF91AF91E7
:1008D0009F918F917F916F915F914F913F912F9158
:1008E0000F900FBE0F901F9018951F920F920FB68A
:1008F0000F9211242F938F939F93EF93FF93E09187
:100900004301F09144018081E0914901F0914A0155
:1009100082FD1BC0908180914C018F5F8F7320916D
:100920004D01821741F0E0914C01F0E0ED5CFE4F8B
:10093000958F80934C01FF91EF919F918F912F9113
:100940000F900FBE0F901F9018958081F4CFE3E3B6
:10095000F1E01382128288EE93E0A0E0B0E084839D
:100960009583A683B78384E091E09183808385ECAF
:1009700090E09587848784EC90E09787868780EC69
:1009800090E0918B808B81EC90E0938B828B82EC5A
:1009900090E0958B848B86EC90E0978B868B118E04
:1009A000128E138E148EA0EDB1E082E015968C931A
:1009B00015978BE016968C931697E0EBF0E0E49198
:1009C0001796EC931797ECE9F0E0E4911896EC9306
:1009D000189740E85EE360E070E01D964D935D93EC
:1009E0006D937C9350970895789484B5826084BD0C
:1009F00084B5816084BD85B5826085BD85B5816023
:100A000085BD80916E00816080936E0010928100A0
:100A1000809181008260809381008091810081605B
:100A2000809381008091800081608093800080911C
:100A3000B10084608093B1008091B00081608093A8
:100A4000B00080917A00846080937A0080917A006F
:100A5000826080937A0080917A00816080937A002E
:100A600080917A00806880937A001092C10061E0E2
:100A700089E00E94100162E08091D5010E9410017E
:100A80002FB7F89480912F0190913001A0913101FE
:100A9000B09132012FBF805D9740A109B1098093C9
:100AA000D9019093DA01A093DB01B093DC0187E3D5
:100AB0008093E201E0914301F091440182E0808360
:100AC000E0913F01F09140011082E0914101F091ED
:100AD00042018FEC808310924B01E0914701F0912D
:100AE000480186E08083E0914501F09146018081D4
:100AF00080618083E0914501F091460180818860AA
:100B00008083E0914501F091460180818068808377
:100B1000E0914501F091460180818F7D8083C0E0A6
:100B2000D0E00E9498010E949801882341F08091B2
:100B3000D6018C3009F476C048F48B3001F1C12C19
:100B4000D12C80ECE82E8FE7F82E43C085518230FF
:100B5000B0F71091D201612F70E0762F66276627DB
:100B60007F778091D301682B90E080E00E946A0734
:100B70002DEC3CEC4CEC5DE30E9421086FC06091D1
:100B8000D20170E090E080E00E946A076B017C0176
:100B90001091D30117FF0AC0AC019B0160E070E027
:100BA00080E89FEB0E94C9066B017C011F70612FDA
:100BB00070E090E080E00E946C072DEC3CEC4CEC87
:100BC0005DE30E942108A70196010E94CA066B01FD
:100BD0007C0120E030E040EF51E4C701B6010E9403
:100BE0001C0861E087FD60E089E00E94C40082E1AA
:100BF00091E00E94B403A7019601C701B6010E94CB
:100C00008E088823A1F18EE191E00E94B403209721
:100C100009F487CF0E941103882309F482CF0E9430
:100C200000007FCF1091D201612F70E090E080E052
:100C30000E946A076B017C016091D3016F7070E0C4
:100C400090E080E00E946C072DEC3CEC4CEC5DE306
:100C50000E942108A70196010E94CA066B017C012F
:100C600017FFB7CFF7FAF094F7F8F094B2CF460138
:100C70005701E894B7F82FEF3FEF4FE75FE7C50163
:100C8000B4010E948E0881110DC02FEF3FEF4FE796
:100C90005FE7C501B4010E94360718161CF482E212
:100CA00091E0B3CF2FEF3FEF4FE75FE4C701B6010D
:100CB0000E941C0818161CF486E291E0A6CF2FEFC4
:100CC0003FEF4FE75FECC701B6010E94360787FD93
:100CD000F3CF20E030E0A901C701B6010E9436073A
:100CE00087FF09C06DE283E391E00E944703F7FAB2
:100CF000F094F7F8F0942AE037ED43EA5BE3C7019C
:100D0000B6010E94CA064B015C010E943B076B01C1
:100D10007C010E946A079B01AC01C501B4010E94DD
:100D2000C9064B015C014AE0C701B6010E94C1033C
:100D30006EE283E391E00E94470320E030E040E26E
:100D400051E4C501B4010E9421084B015C010E94DD
:100D50003B076B01F12CE12C4AE0C701B6010E9470
:100D6000C103C701B6010E946A079B01AC01C5011E
:100D7000B4010E94C90620E030E040E251E40E9444
:100D800021080E943B0790E080E04AE00E94C103F6
:100D90003ECF5058BB27AA270E94E1060C94E207D9
:100DA0000E94D40738F00E94DB0720F039F49F3FFF
:100DB00019F426F40C94D1070EF4E095E7FB0C949B
:100DC000CB07E92F0E94F30758F3BA17620773079E
:100DD0008407950720F079F4A6F50C9415080EF415
:100DE000E0950B2EBA2FA02D0B01B90190010C013B
:100DF000CA01A0011124FF27591B99F0593F50F453
:100E0000503E68F11A16F040A22F232F342F4427AA
:100E1000585FF3CF469537952795A795F0405395A2
:100E2000C9F77EF41F16BA0B620B730B840BBAF072
:100E30009150A1F0FF0FBB1F661F771F881FC2F7DD
:100E40000EC0BA0F621F731F841F48F487957795F1
:100E50006795B795F7959E3F08F0B0CF9395880FAB
:100E600008F09927EE0F9795879508950E94A70798
:100E700008F481E008950E94FB0788F09F5798F0DE
:100E8000B92F9927B751B0F0E1F0660F771F881F8F
:100E9000991F1AF0BA95C9F714C0B13091F00E94A9
:100EA0001508B1E008950C941508672F782F88274E
:100EB000B85F39F0B93FCCF3869577956795B395D0
:100EC000D9F73EF490958095709561957F4F8F4F3F
:100ED0009F4F0895E89409C097FB3EF49095809544
:100EE000709561957F4F8F4F9F4F9923A9F0F92FF0
:100EF00096E9BB279395F695879577956795B7956E
:100F0000F111F8CFFAF4BB0F11F460FF1BC06F5F53
:100F10007F4F8F4F9F4F16C0882311F096E911C065
:100F2000772321F09EE8872F762F05C0662371F086
:100F300096E8862F70E060E02AF09A95660F771F9A
:100F4000881FDAF7880F9695879597F90895990F76
:100F50000008550FAA0BE0E8FEEF16161706E80783
:100F6000F907C0F012161306E407F50798F0621BA4
:100F7000730B840B950B39F40A2661F0232B242B79
:100F8000252B21F408950A2609F4A140A6958FEF98
:100F9000811D811D089597F99F6780E870E060E0EA
:100FA00008959FEF80EC089500240A941616170602
:100FB00018060906089500240A941216130614064A
:100FC00005060895092E0394000C11F4882352F0AD
:100FD000BB0F40F4BF2B11F460FF04C06F5F7F4F65
:100FE0008F4F9F4F089557FD9058440F551F59F04C
:100FF0005F3F71F04795880F97FB991F61F09F3F06
:1010000079F087950895121613061406551FF2CF2E
:101010004695F1DF08C0161617061806991FF1CF7E
:1010200086957105610508940895E894BB276627A5
:101030007727CB0197F908950E94A70708F48FEF4F
:1010400008950E9434080C94E2070E94D40738F0F7
:101050000E94DB0720F0952311F00C94CB070C9431
:10106000D10711240C9416080E94F30770F3959F82
:10107000C1F3950F50E0551F629FF001729FBB278F
:10108000F00DB11D639FAA27F00DB11DAA1F649F2B
:101090006627B00DA11D661F829F2227B00DA11DDE
:1010A000621F739FB00DA11D621F839FA00D611D64
:1010B000221F749F3327A00D611D231F849F600D85
:1010C000211D822F762F6A2F11249F5750409AF0AE
:1010D000F1F088234AF0EE0FFF1FBB1F661F771F3A
:1010E000881F91505040A9F79E3F510580F00C9405
:1010F000CB070C9416085F3FE4F3983ED4F3869533
:1011000077956795B795F795E7959F5FC1F7FE2BA4
:10111000880F911D9695879597F908950E94A707C6
:10112000880B990B0895A1E21A2EAA1BBB1BFD0187
:101130000DC0AA1FBB1FEE1FFF1FA217B307E407B6
:10114000F50720F0A21BB30BE40BF50B661F771F0E
:10115000881F991F1A9469F76095709580959095EE
:101160009B01AC01BD01CF010895EE0FFF1F05905B
:0A117000F491E02D0994F894FFCFEC
:10117A00000000004703A702D40294030503E30218
:10118A00F70274656D7065726174757265006E61DF
:0A119A006E00696E66006F76660055
:00000001FF
